{
  "contractName": "Staking_Token",
  "abi": [
    {
      "inputs": [
        {
          "internalType": "contract ERC20Basic",
          "name": "_addressERC20",
          "type": "address"
        }
      ],
      "stateMutability": "nonpayable",
      "type": "constructor"
    },
    {
      "anonymous": false,
      "inputs": [
        {
          "indexed": false,
          "internalType": "address",
          "name": "from",
          "type": "address"
        },
        {
          "indexed": false,
          "internalType": "uint256",
          "name": "amount",
          "type": "uint256"
        },
        {
          "indexed": false,
          "internalType": "uint256",
          "name": "_duration",
          "type": "uint256"
        }
      ],
      "name": "tokensStaked",
      "type": "event"
    },
    {
      "inputs": [
        {
          "internalType": "address",
          "name": "",
          "type": "address"
        }
      ],
      "name": "Stake_details",
      "outputs": [
        {
          "internalType": "uint256",
          "name": "stake_amount",
          "type": "uint256"
        },
        {
          "internalType": "string",
          "name": "stake_type",
          "type": "string"
        },
        {
          "internalType": "uint256",
          "name": "stake_time",
          "type": "uint256"
        },
        {
          "internalType": "uint256",
          "name": "starting_stake_time",
          "type": "uint256"
        },
        {
          "internalType": "bool",
          "name": "isFixed",
          "type": "bool"
        },
        {
          "internalType": "address",
          "name": "owner",
          "type": "address"
        },
        {
          "internalType": "bool",
          "name": "isClaimed",
          "type": "bool"
        }
      ],
      "stateMutability": "view",
      "type": "function"
    },
    {
      "inputs": [
        {
          "internalType": "uint256",
          "name": "_amount",
          "type": "uint256"
        },
        {
          "internalType": "string",
          "name": "_type",
          "type": "string"
        },
        {
          "internalType": "uint256",
          "name": "_duration",
          "type": "uint256"
        },
        {
          "internalType": "bool",
          "name": "_isFixed",
          "type": "bool"
        }
      ],
      "name": "staking",
      "outputs": [],
      "stateMutability": "nonpayable",
      "type": "function"
    },
    {
      "inputs": [
        {
          "internalType": "address",
          "name": "_address",
          "type": "address"
        }
      ],
      "name": "unstaking",
      "outputs": [
        {
          "internalType": "uint256",
          "name": "",
          "type": "uint256"
        }
      ],
      "stateMutability": "nonpayable",
      "type": "function"
    },
    {
      "inputs": [
        {
          "internalType": "address",
          "name": "_address",
          "type": "address"
        }
      ],
      "name": "TokenBalance",
      "outputs": [
        {
          "internalType": "uint256",
          "name": "",
          "type": "uint256"
        }
      ],
      "stateMutability": "view",
      "type": "function"
    },
    {
      "inputs": [
        {
          "internalType": "address",
          "name": "_address",
          "type": "address"
        }
      ],
      "name": "claimedRewards",
      "outputs": [
        {
          "internalType": "uint256",
          "name": "",
          "type": "uint256"
        }
      ],
      "stateMutability": "view",
      "type": "function"
    },
    {
      "inputs": [
        {
          "internalType": "address",
          "name": "_address",
          "type": "address"
        }
      ],
      "name": "unclaimedRewards",
      "outputs": [
        {
          "internalType": "uint256",
          "name": "",
          "type": "uint256"
        }
      ],
      "stateMutability": "view",
      "type": "function"
    },
    {
      "inputs": [],
      "name": "getcontractaddress",
      "outputs": [
        {
          "internalType": "address",
          "name": "",
          "type": "address"
        }
      ],
      "stateMutability": "nonpayable",
      "type": "function"
    }
  ],
  "bytecode": "0x608060405261012c42620000149190620000d9565b6002556004600355600660045560026005553480156200003357600080fd5b50604051620025a1380380620025a18339818101604052810190620000599190620001b4565b806000806101000a81548173ffffffffffffffffffffffffffffffffffffffff021916908373ffffffffffffffffffffffffffffffffffffffff16021790555050620001e6565b6000819050919050565b7f4e487b7100000000000000000000000000000000000000000000000000000000600052601160045260246000fd5b6000620000e682620000a0565b9150620000f383620000a0565b9250827fffffffffffffffffffffffffffffffffffffffffffffffffffffffffffffffff038211156200012b576200012a620000aa565b5b828201905092915050565b600080fd5b600073ffffffffffffffffffffffffffffffffffffffff82169050919050565b600062000168826200013b565b9050919050565b60006200017c826200015b565b9050919050565b6200018e816200016f565b81146200019a57600080fd5b50565b600081519050620001ae8162000183565b92915050565b600060208284031215620001cd57620001cc62000136565b5b6000620001dd848285016200019d565b91505092915050565b6123ab80620001f66000396000f3fe608060405234801561001057600080fd5b506004361061007d5760003560e01c8063b6e2b3951161005b578063b6e2b395146100ec578063bd8343451461011c578063cb8d751a1461014c578063f42f2e821461017c5761007d565b8063156213731461008257806316f88c94146100a0578063949813b8146100bc575b600080fd5b61008a6101b2565b60405161009791906119cb565b60405180910390f35b6100ba60048036038101906100b59190611bae565b6101ba565b005b6100d660048036038101906100d19190611c5d565b6109cc565b6040516100e39190611c99565b60405180910390f35b61010660048036038101906101019190611c5d565b610b09565b6040516101139190611c99565b60405180910390f35b61013660048036038101906101319190611c5d565b610bad565b6040516101439190611c99565b60405180910390f35b61016660048036038101906101619190611c5d565b610daf565b6040516101739190611c99565b60405180910390f35b61019660048036038101906101919190611c5d565b6117a3565b6040516101a99796959493929190611d4b565b60405180910390f35b600030905090565b8360008054906101000a900473ffffffffffffffffffffffffffffffffffffffff1673ffffffffffffffffffffffffffffffffffffffff166370a08231336040518263ffffffff1660e01b815260040161021491906119cb565b602060405180830381865afa158015610231573d6000803e3d6000fd5b505050506040513d601f19601f820116820180604052508101906102559190611dd6565b1015610296576040517f08c379a000000000000000000000000000000000000000000000000000000000815260040161028d90611e4f565b60405180910390fd5b6040516020016102a590611ec6565b60405160208183030381529060405280519060200120836040516020016102cc9190611f0c565b60405160208183030381529060405280519060200120141561067b576000841161032b576040517f08c379a000000000000000000000000000000000000000000000000000000000815260040161032290611f95565b60405180910390fd5b83600a60003373ffffffffffffffffffffffffffffffffffffffff1673ffffffffffffffffffffffffffffffffffffffff1681526020019081526020016000206000018190555082600a60003373ffffffffffffffffffffffffffffffffffffffff1673ffffffffffffffffffffffffffffffffffffffff16815260200190815260200160002060010190805190602001906103c89291906118a7565b50816002546103d79190611fe4565b600a60003373ffffffffffffffffffffffffffffffffffffffff1673ffffffffffffffffffffffffffffffffffffffff1681526020019081526020016000206002018190555080600a60003373ffffffffffffffffffffffffffffffffffffffff1673ffffffffffffffffffffffffffffffffffffffff16815260200190815260200160002060040160006101000a81548160ff02191690831515021790555033600a60003373ffffffffffffffffffffffffffffffffffffffff1673ffffffffffffffffffffffffffffffffffffffff16815260200190815260200160002060040160016101000a81548173ffffffffffffffffffffffffffffffffffffffff021916908373ffffffffffffffffffffffffffffffffffffffff1602179055506000600a60003373ffffffffffffffffffffffffffffffffffffffff1673ffffffffffffffffffffffffffffffffffffffff16815260200190815260200160002060040160156101000a81548160ff02191690831515021790555042600a60003373ffffffffffffffffffffffffffffffffffffffff1673ffffffffffffffffffffffffffffffffffffffff1681526020019081526020016000206003018190555060008054906101000a900473ffffffffffffffffffffffffffffffffffffffff1673ffffffffffffffffffffffffffffffffffffffff166323b872dd3330876040518463ffffffff1660e01b81526004016105f79392919061203a565b6020604051808303816000875af1158015610616573d6000803e3d6000fd5b505050506040513d601f19601f8201168201806040525081019061063a9190612086565b507f96c68044657fcb3bea5ad282f026bd0361f647d377dfe1615a77e35dd87280a133854260405161066e939291906120b3565b60405180910390a16109c6565b60405160200161068a90612136565b60405160208183030381529060405280519060200120836040516020016106b19190611f0c565b6040516020818303038152906040528051906020012014156109c55783600a60003373ffffffffffffffffffffffffffffffffffffffff1673ffffffffffffffffffffffffffffffffffffffff1681526020019081526020016000206000018190555082600a60003373ffffffffffffffffffffffffffffffffffffffff1673ffffffffffffffffffffffffffffffffffffffff168152602001908152602001600020600101908051906020019061076a9291906118a7565b5080600a60003373ffffffffffffffffffffffffffffffffffffffff1673ffffffffffffffffffffffffffffffffffffffff16815260200190815260200160002060040160006101000a81548160ff02191690831515021790555033600a60003373ffffffffffffffffffffffffffffffffffffffff1673ffffffffffffffffffffffffffffffffffffffff16815260200190815260200160002060040160016101000a81548173ffffffffffffffffffffffffffffffffffffffff021916908373ffffffffffffffffffffffffffffffffffffffff1602179055506000600a60003373ffffffffffffffffffffffffffffffffffffffff1673ffffffffffffffffffffffffffffffffffffffff16815260200190815260200160002060040160156101000a81548160ff02191690831515021790555042600a60003373ffffffffffffffffffffffffffffffffffffffff1673ffffffffffffffffffffffffffffffffffffffff1681526020019081526020016000206003018190555060008054906101000a900473ffffffffffffffffffffffffffffffffffffffff1673ffffffffffffffffffffffffffffffffffffffff166323b872dd3330876040518463ffffffff1660e01b81526004016109459392919061203a565b6020604051808303816000875af1158015610964573d6000803e3d6000fd5b505050506040513d601f19601f820116820180604052508101906109889190612086565b507f96c68044657fcb3bea5ad282f026bd0361f647d377dfe1615a77e35dd87280a13385426040516109bc939291906120b3565b60405180910390a15b5b50505050565b600060011515600a60008473ffffffffffffffffffffffffffffffffffffffff1673ffffffffffffffffffffffffffffffffffffffff16815260200190815260200160002060040160009054906101000a900460ff1615151415610a995760011515600a60008473ffffffffffffffffffffffffffffffffffffffff1673ffffffffffffffffffffffffffffffffffffffff16815260200190815260200160002060040160159054906101000a900460ff1615151415610a8f5760009050610b04565b6007549050610b04565b60011515600a60008473ffffffffffffffffffffffffffffffffffffffff1673ffffffffffffffffffffffffffffffffffffffff16815260200190815260200160002060040160159054906101000a900460ff1615151415610afe5760009050610b04565b60075490505b919050565b60008060009054906101000a900473ffffffffffffffffffffffffffffffffffffffff1673ffffffffffffffffffffffffffffffffffffffff166370a08231836040518263ffffffff1660e01b8152600401610b6591906119cb565b602060405180830381865afa158015610b82573d6000803e3d6000fd5b505050506040513d601f19601f82011682018060405250810190610ba69190611dd6565b9050919050565b600060011515600a60008473ffffffffffffffffffffffffffffffffffffffff1673ffffffffffffffffffffffffffffffffffffffff16815260200190815260200160002060040160009054906101000a900460ff1615151415610cf657600a60003373ffffffffffffffffffffffffffffffffffffffff1673ffffffffffffffffffffffffffffffffffffffff16815260200190815260200160002060020154421115610cac57600754600a60008473ffffffffffffffffffffffffffffffffffffffff1673ffffffffffffffffffffffffffffffffffffffff16815260200190815260200160002060000154610ca59190611fe4565b9050610daa565b600a60008373ffffffffffffffffffffffffffffffffffffffff1673ffffffffffffffffffffffffffffffffffffffff168152602001908152602001600020600001549050610daa565b600a60003373ffffffffffffffffffffffffffffffffffffffff1673ffffffffffffffffffffffffffffffffffffffff16815260200190815260200160002060020154421015610d5757600854600954610d50919061214b565b9050610daa565b600754600a60008473ffffffffffffffffffffffffffffffffffffffff1673ffffffffffffffffffffffffffffffffffffffff16815260200190815260200160002060000154610da79190611fe4565b90505b919050565b6000600a60003373ffffffffffffffffffffffffffffffffffffffff1673ffffffffffffffffffffffffffffffffffffffff16815260200190815260200160002060040160019054906101000a900473ffffffffffffffffffffffffffffffffffffffff1673ffffffffffffffffffffffffffffffffffffffff163373ffffffffffffffffffffffffffffffffffffffff1614610e81576040517f08c379a0000000000000000000000000000000000000000000000000000000008152600401610e78906121cb565b60405180910390fd5b60011515600a60008473ffffffffffffffffffffffffffffffffffffffff1673ffffffffffffffffffffffffffffffffffffffff16815260200190815260200160002060040160009054906101000a900460ff16151514156114c957600a60003373ffffffffffffffffffffffffffffffffffffffff1673ffffffffffffffffffffffffffffffffffffffff1681526020019081526020016000206002015442111561119e576064600454600a60008573ffffffffffffffffffffffffffffffffffffffff1673ffffffffffffffffffffffffffffffffffffffff16815260200190815260200160002060000154610f7991906121eb565b610f839190612274565b600781905550600754600a60008473ffffffffffffffffffffffffffffffffffffffff1673ffffffffffffffffffffffffffffffffffffffff16815260200190815260200160002060000154610fd99190611fe4565b60088190555060008054906101000a900473ffffffffffffffffffffffffffffffffffffffff1673ffffffffffffffffffffffffffffffffffffffff1663a9059cbb836008546040518363ffffffff1660e01b815260040161103c9291906122a5565b6020604051808303816000875af115801561105b573d6000803e3d6000fd5b505050506040513d601f19601f8201168201806040525081019061107f9190612086565b50600a60008373ffffffffffffffffffffffffffffffffffffffff1673ffffffffffffffffffffffffffffffffffffffff1681526020019081526020016000206000808201600090556001820160006110d8919061192d565b600282016000905560038201600090556004820160006101000a81549060ff02191690556004820160016101000a81549073ffffffffffffffffffffffffffffffffffffffff02191690556004820160156101000a81549060ff021916905550506001600a60003373ffffffffffffffffffffffffffffffffffffffff1673ffffffffffffffffffffffffffffffffffffffff16815260200190815260200160002060040160156101000a81548160ff021916908315150217905550600854905061179e565b600a60003373ffffffffffffffffffffffffffffffffffffffff1673ffffffffffffffffffffffffffffffffffffffff168152602001908152602001600020600201544210156114c457600254421061122c576040517f08c379a0000000000000000000000000000000000000000000000000000000008152600401611223906122f4565b60405180910390fd5b6064600454600a60008573ffffffffffffffffffffffffffffffffffffffff1673ffffffffffffffffffffffffffffffffffffffff1681526020019081526020016000206000015461127e91906121eb565b6112889190612274565b6007819055506064606060075461129f91906121eb565b6112a99190612274565b600881905550600a60008373ffffffffffffffffffffffffffffffffffffffff1673ffffffffffffffffffffffffffffffffffffffff168152602001908152602001600020600001546008546112ff9190611fe4565b60098190555060008054906101000a900473ffffffffffffffffffffffffffffffffffffffff1673ffffffffffffffffffffffffffffffffffffffff1663a9059cbb836009546040518363ffffffff1660e01b81526004016113629291906122a5565b6020604051808303816000875af1158015611381573d6000803e3d6000fd5b505050506040513d601f19601f820116820180604052508101906113a59190612086565b50600a60008373ffffffffffffffffffffffffffffffffffffffff1673ffffffffffffffffffffffffffffffffffffffff1681526020019081526020016000206000808201600090556001820160006113fe919061192d565b600282016000905560038201600090556004820160006101000a81549060ff02191690556004820160016101000a81549073ffffffffffffffffffffffffffffffffffffffff02191690556004820160156101000a81549060ff021916905550506001600a60003373ffffffffffffffffffffffffffffffffffffffff1673ffffffffffffffffffffffffffffffffffffffff16815260200190815260200160002060040160156101000a81548160ff021916908315150217905550600954905061179e565b61179d565b60001515600a60008473ffffffffffffffffffffffffffffffffffffffff1673ffffffffffffffffffffffffffffffffffffffff16815260200190815260200160002060040160009054906101000a900460ff161515141561179c576064600554600a60008573ffffffffffffffffffffffffffffffffffffffff1673ffffffffffffffffffffffffffffffffffffffff1681526020019081526020016000206000015461157791906121eb565b6115819190612274565b600781905550600754600a60008473ffffffffffffffffffffffffffffffffffffffff1673ffffffffffffffffffffffffffffffffffffffff168152602001908152602001600020600001546115d79190611fe4565b60088190555060008054906101000a900473ffffffffffffffffffffffffffffffffffffffff1673ffffffffffffffffffffffffffffffffffffffff1663a9059cbb836008546040518363ffffffff1660e01b815260040161163a9291906122a5565b6020604051808303816000875af1158015611659573d6000803e3d6000fd5b505050506040513d601f19601f8201168201806040525081019061167d9190612086565b50600a60008373ffffffffffffffffffffffffffffffffffffffff1673ffffffffffffffffffffffffffffffffffffffff1681526020019081526020016000206000808201600090556001820160006116d6919061192d565b600282016000905560038201600090556004820160006101000a81549060ff02191690556004820160016101000a81549073ffffffffffffffffffffffffffffffffffffffff02191690556004820160156101000a81549060ff021916905550506001600a60003373ffffffffffffffffffffffffffffffffffffffff1673ffffffffffffffffffffffffffffffffffffffff16815260200190815260200160002060040160156101000a81548160ff021916908315150217905550600854905061179e565b5b5b919050565b600a6020528060005260406000206000915090508060000154908060010180546117cc90612343565b80601f01602080910402602001604051908101604052809291908181526020018280546117f890612343565b80156118455780601f1061181a57610100808354040283529160200191611845565b820191906000526020600020905b81548152906001019060200180831161182857829003601f168201915b5050505050908060020154908060030154908060040160009054906101000a900460ff16908060040160019054906101000a900473ffffffffffffffffffffffffffffffffffffffff16908060040160159054906101000a900460ff16905087565b8280546118b390612343565b90600052602060002090601f0160209004810192826118d5576000855561191c565b82601f106118ee57805160ff191683800117855561191c565b8280016001018555821561191c579182015b8281111561191b578251825591602001919060010190611900565b5b509050611929919061196d565b5090565b50805461193990612343565b6000825580601f1061194b575061196a565b601f016020900490600052602060002090810190611969919061196d565b5b50565b5b8082111561198657600081600090555060010161196e565b5090565b600073ffffffffffffffffffffffffffffffffffffffff82169050919050565b60006119b58261198a565b9050919050565b6119c5816119aa565b82525050565b60006020820190506119e060008301846119bc565b92915050565b6000604051905090565b600080fd5b600080fd5b6000819050919050565b611a0d816119fa565b8114611a1857600080fd5b50565b600081359050611a2a81611a04565b92915050565b600080fd5b600080fd5b6000601f19601f8301169050919050565b7f4e487b7100000000000000000000000000000000000000000000000000000000600052604160045260246000fd5b611a8382611a3a565b810181811067ffffffffffffffff82111715611aa257611aa1611a4b565b5b80604052505050565b6000611ab56119e6565b9050611ac18282611a7a565b919050565b600067ffffffffffffffff821115611ae157611ae0611a4b565b5b611aea82611a3a565b9050602081019050919050565b82818337600083830152505050565b6000611b19611b1484611ac6565b611aab565b905082815260208101848484011115611b3557611b34611a35565b5b611b40848285611af7565b509392505050565b600082601f830112611b5d57611b5c611a30565b5b8135611b6d848260208601611b06565b91505092915050565b60008115159050919050565b611b8b81611b76565b8114611b9657600080fd5b50565b600081359050611ba881611b82565b92915050565b60008060008060808587031215611bc857611bc76119f0565b5b6000611bd687828801611a1b565b945050602085013567ffffffffffffffff811115611bf757611bf66119f5565b5b611c0387828801611b48565b9350506040611c1487828801611a1b565b9250506060611c2587828801611b99565b91505092959194509250565b611c3a816119aa565b8114611c4557600080fd5b50565b600081359050611c5781611c31565b92915050565b600060208284031215611c7357611c726119f0565b5b6000611c8184828501611c48565b91505092915050565b611c93816119fa565b82525050565b6000602082019050611cae6000830184611c8a565b92915050565b600081519050919050565b600082825260208201905092915050565b60005b83811015611cee578082015181840152602081019050611cd3565b83811115611cfd576000848401525b50505050565b6000611d0e82611cb4565b611d188185611cbf565b9350611d28818560208601611cd0565b611d3181611a3a565b840191505092915050565b611d4581611b76565b82525050565b600060e082019050611d60600083018a611c8a565b8181036020830152611d728189611d03565b9050611d816040830188611c8a565b611d8e6060830187611c8a565b611d9b6080830186611d3c565b611da860a08301856119bc565b611db560c0830184611d3c565b98975050505050505050565b600081519050611dd081611a04565b92915050565b600060208284031215611dec57611deb6119f0565b5b6000611dfa84828501611dc1565b91505092915050565b7f496e73756666696369656e742042616c616e6365000000000000000000000000600082015250565b6000611e39601483611cbf565b9150611e4482611e03565b602082019050919050565b60006020820190508181036000830152611e6881611e2c565b9050919050565b600081905092915050565b7f6669786564000000000000000000000000000000000000000000000000000000600082015250565b6000611eb0600583611e6f565b9150611ebb82611e7a565b600582019050919050565b6000611ed182611ea3565b9150819050919050565b6000611ee682611cb4565b611ef08185611e6f565b9350611f00818560208601611cd0565b80840191505092915050565b6000611f188284611edb565b915081905092915050565b7f205374616b652063616e206e6f742062652030202c20456e74657220736f6d6560008201527f20616d6f756e74206f6620746f6b656e73000000000000000000000000000000602082015250565b6000611f7f603183611cbf565b9150611f8a82611f23565b604082019050919050565b60006020820190508181036000830152611fae81611f72565b9050919050565b7f4e487b7100000000000000000000000000000000000000000000000000000000600052601160045260246000fd5b6000611fef826119fa565b9150611ffa836119fa565b9250827fffffffffffffffffffffffffffffffffffffffffffffffffffffffffffffffff0382111561202f5761202e611fb5565b5b828201905092915050565b600060608201905061204f60008301866119bc565b61205c60208301856119bc565b6120696040830184611c8a565b949350505050565b60008151905061208081611b82565b92915050565b60006020828403121561209c5761209b6119f0565b5b60006120aa84828501612071565b91505092915050565b60006060820190506120c860008301866119bc565b6120d56020830185611c8a565b6120e26040830184611c8a565b949350505050565b7f756e666978656400000000000000000000000000000000000000000000000000600082015250565b6000612120600783611e6f565b915061212b826120ea565b600782019050919050565b600061214182612113565b9150819050919050565b6000612156826119fa565b9150612161836119fa565b92508282101561217457612173611fb5565b5b828203905092915050565b7f5374616b6520686173206e6f74206265656e20696e6974696174656400000000600082015250565b60006121b5601c83611cbf565b91506121c08261217f565b602082019050919050565b600060208201905081810360008301526121e4816121a8565b9050919050565b60006121f6826119fa565b9150612201836119fa565b9250817fffffffffffffffffffffffffffffffffffffffffffffffffffffffffffffffff048311821515161561223a57612239611fb5565b5b828202905092915050565b7f4e487b7100000000000000000000000000000000000000000000000000000000600052601260045260246000fd5b600061227f826119fa565b915061228a836119fa565b92508261229a57612299612245565b5b828204905092915050565b60006040820190506122ba60008301856119bc565b6122c76020830184611c8a565b9392505050565b50565b60006122de600083611cbf565b91506122e9826122ce565b600082019050919050565b6000602082019050818103600083015261230d816122d1565b9050919050565b7f4e487b7100000000000000000000000000000000000000000000000000000000600052602260045260246000fd5b6000600282049050600182168061235b57607f821691505b6020821081141561236f5761236e612314565b5b5091905056fea2646970667358221220cfdac5512cae0ccf860d502a04207b7ea2155afb6ac84a8a4e0c6cd3cd2eff6a64736f6c634300080a0033",
  "immutableReferences": {},
  "source": "// SPDX-License-Identifier: MIT\r\npragma solidity ^0.8.10;\r\n\r\nimport \"./ERC-20.sol\";\r\n// import \"hardhat/console.sol\";\r\n\r\ncontract Staking_Token {\r\n    ERC20Basic Token;\r\n\r\n    constructor(ERC20Basic _addressERC20) {\r\n        Token = _addressERC20;\r\n    }\r\n\r\n    struct Stake {\r\n        uint256 stake_amount;\r\n        string stake_type;\r\n        uint256 stake_time;\r\n        uint256 starting_stake_time;\r\n        bool isFixed;\r\n        address owner;\r\n        bool isClaimed;\r\n    }\r\n\r\n    address mapping_address;\r\n    uint256 expirytime_forfixedstaking = block.timestamp + 300;\r\n    uint256 penality_stake = 4; // percent 4%\r\n    uint256 fixedinterest_rate = 6;\r\n    uint256 unfixedinterest_rate = 2;\r\n    uint256 stake_reward;\r\n    uint256 Interest;\r\n    uint256 totalIntrestAmount;\r\n    uint256 finalAmount;\r\n\r\n    mapping(address => Stake) public Stake_details;\r\n    // mapping(address => uint256) public balances;\r\n\r\n    event tokensStaked(address from, uint256 amount, uint256 _duration);\r\n\r\n\r\n    function staking(uint256 _amount,string memory _type,uint256 _duration, bool _isFixed) public {\r\n        require(Token.balanceOf(msg.sender) >= _amount, \"Insufficient Balance\");\r\n        if ( keccak256(abi.encodePacked(_type)) == keccak256(abi.encodePacked(\"fixed\")) ) {\r\n            require( _amount > 0,\" Stake can not be 0 , Enter some amount of tokens\");\r\n            Stake_details[msg.sender].stake_amount = _amount;\r\n            Stake_details[msg.sender].stake_type = _type;\r\n            Stake_details[msg.sender].stake_time = expirytime_forfixedstaking + _duration;\r\n            Stake_details[msg.sender].isFixed = _isFixed;\r\n            Stake_details[msg.sender].owner =msg.sender;\r\n            Stake_details[msg.sender].isClaimed =false;\r\n            Stake_details[msg.sender].starting_stake_time = block.timestamp;\r\n            Token.transferFrom(msg.sender, address(this), _amount);\r\n            emit tokensStaked(msg.sender, _amount, block.timestamp);\r\n        } \r\n        else if (keccak256(abi.encodePacked(_type)) == keccak256(abi.encodePacked(\"unfixed\")) ) {\r\n            Stake_details[msg.sender].stake_amount = _amount;\r\n            Stake_details[msg.sender].stake_type = _type;\r\n            Stake_details[msg.sender].isFixed = _isFixed;\r\n            Stake_details[msg.sender].owner =msg.sender;\r\n            Stake_details[msg.sender].isClaimed =false;\r\n            Stake_details[msg.sender].starting_stake_time = block.timestamp;\r\n            Token.transferFrom(msg.sender, address(this), _amount);\r\n            emit tokensStaked(msg.sender, _amount, block.timestamp);\r\n        }\r\n    }\r\n\r\n    function unstaking(address _address) public returns (uint256) {\r\n        // console.log(\"hello\");\r\n        require(msg.sender == Stake_details[msg.sender].owner,\"Stake has not been initiated\");\r\n        if (Stake_details[_address].isFixed == true) {\r\n            // require(Stake_details[_address].stake_time > expirytime_forfixedstaking );\r\n            if (block.timestamp > Stake_details[msg.sender].stake_time ) {\r\n                // console.log(\"inside the fixed stake after complete time\");\r\n                // uint256 fixed_time_after=  expirytime_forfixedstaking - Stake_details[_address].starting_stake_time ;\r\n                Interest =(Stake_details[_address].stake_amount *fixedinterest_rate ) /100;\r\n                totalIntrestAmount =Stake_details[_address].stake_amount + Interest;\r\n                // console.log(totalIntrestAmount);\r\n                Token.transfer(_address, totalIntrestAmount);\r\n                delete Stake_details[_address];\r\n                Stake_details[msg.sender].isClaimed =true;\r\n                return totalIntrestAmount;\r\n            }\r\n\r\n            //unstaked before fixed time so the penality will be taken\r\n            else if (block.timestamp < Stake_details[msg.sender].stake_time) {\r\n                // console.log(\"inside the fixed stake before complete time and got penality\");\r\n                // uint256 fixed_time_before=block.timestamp - Stake_details[_address].starting_stake_time;\r\n                require( block.timestamp <  expirytime_forfixedstaking,\"\" );\r\n                Interest = (Stake_details[_address].stake_amount * fixedinterest_rate )/ 100 ;\r\n                // console.log(Interest);\r\n                totalIntrestAmount = (Interest * 96) / 100;\r\n                // console.log(totalIntrestAmount);\r\n                finalAmount =totalIntrestAmount +Stake_details[_address].stake_amount;\r\n                // console.log(finalAmount);\r\n                Token.transfer(_address, finalAmount);\r\n                delete Stake_details[_address];\r\n                Stake_details[msg.sender].isClaimed =true;\r\n                return finalAmount;\r\n            }\r\n        } \r\n        else if (Stake_details[_address].isFixed == false) {\r\n            // console.log(\"not fixed loop\");\r\n            Interest =(Stake_details[_address].stake_amount *unfixedinterest_rate) /100 ;\r\n                // console.log(Interest);\r\n                totalIntrestAmount =Stake_details[_address].stake_amount + Interest;\r\n                // console.log(totalIntrestAmount);\r\n                Token.transfer(_address, totalIntrestAmount);\r\n                delete Stake_details[_address];\r\n                Stake_details[msg.sender].isClaimed =true;\r\n                return totalIntrestAmount;\r\n        }\r\n    }\r\n\r\n    function TokenBalance(address _address) public view returns (uint256) {\r\n        return Token.balanceOf(_address);\r\n    }\r\n\r\n\r\n    function claimedRewards(address _address) public view returns (uint256) {\r\n    if (Stake_details[_address].isFixed == true) {\r\n        if (block.timestamp > Stake_details[msg.sender].stake_time) {\r\n            return Stake_details[_address].stake_amount + Interest;\r\n        } else {\r\n            return Stake_details[_address].stake_amount;\r\n        }\r\n    }\r\n    else if(block.timestamp < Stake_details[msg.sender].stake_time){\r\n         return finalAmount - totalIntrestAmount;\r\n    \r\n    }\r\n     else {\r\n        return Stake_details[_address].stake_amount + Interest;\r\n    }\r\n}\r\n\r\nfunction unclaimedRewards(address _address) public view  returns (uint256) {\r\n    if (Stake_details[_address].isFixed == true) {\r\n        if (Stake_details[_address].isClaimed == true) {\r\n            return 0;\r\n        } else {\r\n            return Interest;\r\n        }\r\n    } else {\r\n        if (Stake_details[_address].isClaimed == true) {\r\n            return 0;\r\n        } else {\r\n            return Interest;\r\n        }\r\n    }\r\n}\r\n\r\n\r\n    function getcontractaddress() public returns (address) {\r\n        return address(this);\r\n    }\r\n}\r\n",
  "sourcePath": "F:\\Projects\\Ethereum Internship\\Final Assignment of Training\\contracts\\final_assignment_staking_1.sol",
  "compiler": {
    "name": "solc",
    "version": "0.8.10+commit.fc410830.Emscripten.clang"
  },
  "schemaVersion": "3.4.14",
  "updatedAt": "2023-07-13T05:00:35.816Z",
  "devdoc": {
    "kind": "dev",
    "methods": {},
    "version": 1
  },
  "userdoc": {
    "kind": "user",
    "methods": {},
    "version": 1
  }
}